{
  "_format": "hh-sol-artifact-1",
  "contractName": "salary",
  "sourceName": "contracts/salary.sol",
  "abi": [
    {
      "inputs": [],
      "stateMutability": "nonpayable",
      "type": "constructor"
    },
    {
      "inputs": [
        {
          "internalType": "uint256",
          "name": "",
          "type": "uint256"
        }
      ],
      "name": "emp",
      "outputs": [
        {
          "internalType": "address payable",
          "name": "",
          "type": "address"
        }
      ],
      "stateMutability": "view",
      "type": "function"
    },
    {
      "inputs": [],
      "name": "getEmployee",
      "outputs": [
        {
          "internalType": "address payable[]",
          "name": "",
          "type": "address[]"
        }
      ],
      "stateMutability": "view",
      "type": "function"
    },
    {
      "inputs": [],
      "name": "manager",
      "outputs": [
        {
          "internalType": "address payable",
          "name": "",
          "type": "address"
        }
      ],
      "stateMutability": "view",
      "type": "function"
    },
    {
      "inputs": [
        {
          "internalType": "address",
          "name": "_emaddress",
          "type": "address"
        }
      ],
      "name": "registerEmployee",
      "outputs": [],
      "stateMutability": "nonpayable",
      "type": "function"
    },
    {
      "inputs": [],
      "name": "transferSalary",
      "outputs": [],
      "stateMutability": "payable",
      "type": "function"
    },
    {
      "stateMutability": "payable",
      "type": "receive"
    }
  ],
  "bytecode": "0x608060405234801561001057600080fd5b5033600160006101000a81548173ffffffffffffffffffffffffffffffffffffffff021916908373ffffffffffffffffffffffffffffffffffffffff16021790555061098e806100616000396000f3fe60806040526004361061004e5760003560e01c80634132db8f1461005a578063481c6a751461008557806354e420af146100b05780635786a552146100ba578063dbe7e257146100e357610055565b3661005557005b600080fd5b34801561006657600080fd5b5061006f610120565b60405161007c919061067b565b60405180910390f35b34801561009157600080fd5b5061009a6101ae565b6040516100a791906106ac565b60405180910390f35b6100b86101d4565b005b3480156100c657600080fd5b506100e160048036038101906100dc919061070a565b61036f565b005b3480156100ef57600080fd5b5061010a6004803603810190610105919061076d565b6104a5565b60405161011791906106ac565b60405180910390f35b606060008054806020026020016040519081016040528092919081815260200182805480156101a457602002820191906000526020600020905b8160009054906101000a900473ffffffffffffffffffffffffffffffffffffffff1673ffffffffffffffffffffffffffffffffffffffff168152602001906001019080831161015a575b5050505050905090565b600160009054906101000a900473ffffffffffffffffffffffffffffffffffffffff1681565b600160009054906101000a900473ffffffffffffffffffffffffffffffffffffffff1673ffffffffffffffffffffffffffffffffffffffff163373ffffffffffffffffffffffffffffffffffffffff1614610264576040517f08c379a000000000000000000000000000000000000000000000000000000000815260040161025b906107f7565b60405180910390fd5b60005b60008054905081101561030c576000818154811061028857610287610817565b5b9060005260206000200160009054906101000a900473ffffffffffffffffffffffffffffffffffffffff1673ffffffffffffffffffffffffffffffffffffffff166108fc349081150290604051600060405180830381858888f193505050501580156102f8573d6000803e3d6000fd5b50808061030490610875565b915050610267565b50600067ffffffffffffffff811115610328576103276108bd565b5b6040519080825280602002602001820160405280156103565781602001602082028036833780820191505090505b506000908051906020019061036c9291906104e4565b50565b60005b60008054905081101561043e578173ffffffffffffffffffffffffffffffffffffffff16600082815481106103aa576103a9610817565b5b9060005260206000200160009054906101000a900473ffffffffffffffffffffffffffffffffffffffff1673ffffffffffffffffffffffffffffffffffffffff160361042b576040517f08c379a000000000000000000000000000000000000000000000000000000000815260040161042290610938565b60405180910390fd5b808061043690610875565b915050610372565b506000819080600181540180825580915050600190039060005260206000200160009091909190916101000a81548173ffffffffffffffffffffffffffffffffffffffff021916908373ffffffffffffffffffffffffffffffffffffffff16021790555050565b600081815481106104b557600080fd5b906000526020600020016000915054906101000a900473ffffffffffffffffffffffffffffffffffffffff1681565b82805482825590600052602060002090810192821561055d579160200282015b8281111561055c5782518260006101000a81548173ffffffffffffffffffffffffffffffffffffffff021916908373ffffffffffffffffffffffffffffffffffffffff16021790555091602001919060010190610504565b5b50905061056a919061056e565b5090565b5b8082111561058757600081600090555060010161056f565b5090565b600081519050919050565b600082825260208201905092915050565b6000819050602082019050919050565b600073ffffffffffffffffffffffffffffffffffffffff82169050919050565b60006105e2826105b7565b9050919050565b6105f2816105d7565b82525050565b600061060483836105e9565b60208301905092915050565b6000602082019050919050565b60006106288261058b565b6106328185610596565b935061063d836105a7565b8060005b8381101561066e57815161065588826105f8565b975061066083610610565b925050600181019050610641565b5085935050505092915050565b60006020820190508181036000830152610695818461061d565b905092915050565b6106a6816105d7565b82525050565b60006020820190506106c1600083018461069d565b92915050565b600080fd5b60006106d7826105b7565b9050919050565b6106e7816106cc565b81146106f257600080fd5b50565b600081359050610704816106de565b92915050565b6000602082840312156107205761071f6106c7565b5b600061072e848285016106f5565b91505092915050565b6000819050919050565b61074a81610737565b811461075557600080fd5b50565b60008135905061076781610741565b92915050565b600060208284031215610783576107826106c7565b5b600061079184828501610758565b91505092915050565b600082825260208201905092915050565b7f596f7520617265206e6f7420746865206d616e61676572000000000000000000600082015250565b60006107e160178361079a565b91506107ec826107ab565b602082019050919050565b60006020820190508181036000830152610810816107d4565b9050919050565b7f4e487b7100000000000000000000000000000000000000000000000000000000600052603260045260246000fd5b7f4e487b7100000000000000000000000000000000000000000000000000000000600052601160045260246000fd5b600061088082610737565b91507fffffffffffffffffffffffffffffffffffffffffffffffffffffffffffffffff82036108b2576108b1610846565b5b600182019050919050565b7f4e487b7100000000000000000000000000000000000000000000000000000000600052604160045260246000fd5b7f596f75206861766520616c726561647920726567697374657265640000000000600082015250565b6000610922601b8361079a565b915061092d826108ec565b602082019050919050565b6000602082019050818103600083015261095181610915565b905091905056fea264697066735822122054630959bf78a5bfeac39721f0faff8b0cbbe068d9d4b2561a094bc2fa38c4ad64736f6c63430008110033",
  "linkReferences": {},
  "deployedLinkReferences": {}
}